{
  "contractName": "TicketStore",
  "abi": [
    {
      "inputs": [
        {
          "name": "festiTicket",
          "type": "address"
        }
      ],
      "payable": false,
      "stateMutability": "nonpayable",
      "type": "constructor",
      "signature": "constructor"
    },
    {
      "constant": false,
      "inputs": [
        {
          "name": "amount",
          "type": "uint256"
        }
      ],
      "name": "deposit",
      "outputs": [],
      "payable": true,
      "stateMutability": "payable",
      "type": "function",
      "signature": "0xb6b55f25"
    },
    {
      "constant": true,
      "inputs": [],
      "name": "getBalanceMoney",
      "outputs": [
        {
          "name": "",
          "type": "uint256"
        }
      ],
      "payable": false,
      "stateMutability": "view",
      "type": "function",
      "signature": "0x5cf62920"
    },
    {
      "constant": false,
      "inputs": [
        {
          "name": "color",
          "type": "string"
        }
      ],
      "name": "buyTicket",
      "outputs": [
        {
          "name": "",
          "type": "uint256"
        }
      ],
      "payable": true,
      "stateMutability": "payable",
      "type": "function",
      "signature": "0xfa30b251"
    }
  ],
  "bytecode": "0x608060405234801561001057600080fd5b506040516020806103e38339810180604052602081101561003057600080fd5b8101908080519060200190929190505050806000806101000a81548173ffffffffffffffffffffffffffffffffffffffff021916908373ffffffffffffffffffffffffffffffffffffffff16021790555050610352806100916000396000f3fe608060405260043610610057576000357c0100000000000000000000000000000000000000000000000000000000900463ffffffff1680635cf629201461005c578063b6b55f2514610087578063fa30b251146100b5575b600080fd5b34801561006857600080fd5b50610071610184565b6040518082815260200191505060405180910390f35b6100b36004803603602081101561009d57600080fd5b81019080803590602001909291905050506101a3565b005b61016e600480360360208110156100cb57600080fd5b81019080803590602001906401000000008111156100e857600080fd5b8201836020820111156100fa57600080fd5b8035906020019184600183028401116401000000008311171561011c57600080fd5b91908080601f016020809104026020016040519081016040528093929190818152602001838380828437600081840152601f19601f8201169050808301925050505050505091929192905050506101b4565b6040518082815260200191505060405180910390f35b60003073ffffffffffffffffffffffffffffffffffffffff1631905090565b80341415156101b157600080fd5b50565b6000806000809054906101000a900473ffffffffffffffffffffffffffffffffffffffff1673ffffffffffffffffffffffffffffffffffffffff16631c351a9d84336040518363ffffffff167c010000000000000000000000000000000000000000000000000000000002815260040180806020018373ffffffffffffffffffffffffffffffffffffffff1673ffffffffffffffffffffffffffffffffffffffff168152602001828103825284818151815260200191508051906020019080838360005b83811015610293578082015181840152602081019050610278565b50505050905090810190601f1680156102c05780820380516001836020036101000a031916815260200191505b509350505050602060405180830381600087803b1580156102e057600080fd5b505af11580156102f4573d6000803e3d6000fd5b505050506040513d602081101561030a57600080fd5b810190808051906020019092919050505090508091505091905056fea165627a7a72305820fc54f45e2be540408486142396ebbe6cc06f05ec48079da8940c731cd1771d160029",
  "source": "pragma solidity 0.5.0;\n\nimport \"./Color.sol\";\n\ncontract TicketStore {\n    Color private _festiTicket;\n\n    constructor(Color festiTicket) public {\n        _festiTicket = festiTicket;\n    }\n\n    function deposit (uint256 amount) payable external {\n        require(msg.value == amount);\n    }\n\n    function getBalanceMoney() public view returns(uint) {\n        return address(this).balance;\n    }\n\n//    function receiveEthers()  public  {\n//    }\n\n    function buyTicket(string memory color) payable public returns (uint256) {\n        uint256 tokenId = _festiTicket.mint(color, msg.sender);\n        return tokenId;\n    }\n//\n//    function() payable external {\n//    }\n\n}",
  "sourcePath": "/home/datphits/nft-ticket/src/contracts/TicketStore.sol",
  "compiler": {
    "name": "solc",
    "version": "0.5.0+commit.1d4f565a.Emscripten.clang"
  },
  "schemaVersion": "3.0.2",
  "updatedAt": "2021-06-07T10:18:20.023Z",
  "devdoc": {
    "methods": {}
  },
  "userdoc": {
    "methods": {}
  }
}