{
  "contractName": "TicketStore",
  "abi": [
    {
      "inputs": [
        {
          "name": "festiTicket",
          "type": "address"
        }
      ],
      "payable": false,
      "stateMutability": "nonpayable",
      "type": "constructor",
      "signature": "constructor"
    },
    {
      "constant": false,
      "inputs": [
        {
          "name": "amount",
          "type": "uint256"
        }
      ],
      "name": "deposit",
      "outputs": [],
      "payable": true,
      "stateMutability": "payable",
      "type": "function",
      "signature": "0xb6b55f25"
    },
    {
      "constant": true,
      "inputs": [],
      "name": "getBalance",
      "outputs": [
        {
          "name": "",
          "type": "uint256"
        }
      ],
      "payable": false,
      "stateMutability": "view",
      "type": "function",
      "signature": "0x12065fe0"
    },
    {
      "constant": false,
      "inputs": [
        {
          "name": "color",
          "type": "string"
        }
      ],
      "name": "buyTicket",
      "outputs": [
        {
          "name": "",
          "type": "uint256"
        }
      ],
      "payable": false,
      "stateMutability": "nonpayable",
      "type": "function",
      "signature": "0xfa30b251"
    }
  ],
  "bytecode": "0x608060405234801561001057600080fd5b506040516020806103f08339810180604052602081101561003057600080fd5b8101908080519060200190929190505050806000806101000a81548173ffffffffffffffffffffffffffffffffffffffff021916908373ffffffffffffffffffffffffffffffffffffffff1602179055505061035f806100916000396000f3fe608060405260043610610057576000357c0100000000000000000000000000000000000000000000000000000000900463ffffffff16806312065fe01461005c578063b6b55f2514610087578063fa30b251146100b5575b600080fd5b34801561006857600080fd5b50610071610191565b6040518082815260200191505060405180910390f35b6100b36004803603602081101561009d57600080fd5b81019080803590602001909291905050506101b0565b005b3480156100c157600080fd5b5061017b600480360360208110156100d857600080fd5b81019080803590602001906401000000008111156100f557600080fd5b82018360208201111561010757600080fd5b8035906020019184600183028401116401000000008311171561012957600080fd5b91908080601f016020809104026020016040519081016040528093929190818152602001838380828437600081840152601f19601f8201169050808301925050505050505091929192905050506101c1565b6040518082815260200191505060405180910390f35b60003073ffffffffffffffffffffffffffffffffffffffff1631905090565b80341415156101be57600080fd5b50565b6000806000809054906101000a900473ffffffffffffffffffffffffffffffffffffffff1673ffffffffffffffffffffffffffffffffffffffff16631c351a9d84336040518363ffffffff167c010000000000000000000000000000000000000000000000000000000002815260040180806020018373ffffffffffffffffffffffffffffffffffffffff1673ffffffffffffffffffffffffffffffffffffffff168152602001828103825284818151815260200191508051906020019080838360005b838110156102a0578082015181840152602081019050610285565b50505050905090810190601f1680156102cd5780820380516001836020036101000a031916815260200191505b509350505050602060405180830381600087803b1580156102ed57600080fd5b505af1158015610301573d6000803e3d6000fd5b505050506040513d602081101561031757600080fd5b810190808051906020019092919050505090508091505091905056fea165627a7a72305820fd87d1efde45b59c1efeabff3eaea229e5edd7d53f4da95b65d6fed33fb98a850029",
  "source": "pragma solidity 0.5.0;\n\nimport \"./Color.sol\";\n\ncontract TicketStore {\n    Color private _festiTicket;\n\n    constructor(Color festiTicket) public {\n        _festiTicket = festiTicket;\n    }\n\n    function deposit (uint256 amount) payable external {\n        require(msg.value == amount);\n    }\n\n    function getBalance() public view returns(uint) {\n        return address(this).balance;\n    }\n\n    function buyTicket(string memory color) public returns (uint256) {\n        uint256 tokenId = _festiTicket.mint(color, msg.sender);\n        return tokenId;\n    }\n\n}",
  "sourcePath": "/home/datphits/nft-ticket/src/contracts/TicketStore.sol",
  "compiler": {
    "name": "solc",
    "version": "0.5.0+commit.1d4f565a.Emscripten.clang"
  },
  "schemaVersion": "3.0.2",
  "updatedAt": "2021-06-04T11:07:36.504Z",
  "devdoc": {
    "methods": {}
  },
  "userdoc": {
    "methods": {}
  }
}