{
  "contractName": "TicketStore",
  "abi": [
    {
      "inputs": [
        {
          "name": "festiTicket",
          "type": "address"
        }
      ],
      "payable": false,
      "stateMutability": "nonpayable",
      "type": "constructor"
    },
    {
      "payable": true,
      "stateMutability": "payable",
      "type": "fallback"
    },
    {
      "constant": false,
      "inputs": [
        {
          "name": "amount",
          "type": "uint256"
        }
      ],
      "name": "deposit",
      "outputs": [],
      "payable": true,
      "stateMutability": "payable",
      "type": "function"
    },
    {
      "constant": true,
      "inputs": [],
      "name": "getBalanceMoney",
      "outputs": [
        {
          "name": "",
          "type": "uint256"
        }
      ],
      "payable": false,
      "stateMutability": "view",
      "type": "function"
    },
    {
      "constant": false,
      "inputs": [],
      "name": "receiveEthers",
      "outputs": [],
      "payable": true,
      "stateMutability": "payable",
      "type": "function"
    },
    {
      "constant": false,
      "inputs": [
        {
          "name": "color",
          "type": "string"
        }
      ],
      "name": "buyTicket",
      "outputs": [
        {
          "name": "",
          "type": "uint256"
        }
      ],
      "payable": false,
      "stateMutability": "nonpayable",
      "type": "function"
    }
  ],
  "bytecode": "0x608060405234801561001057600080fd5b506040516020806104048339810180604052602081101561003057600080fd5b8101908080519060200190929190505050806000806101000a81548173ffffffffffffffffffffffffffffffffffffffff021916908373ffffffffffffffffffffffffffffffffffffffff16021790555050610373806100916000396000f3fe608060405260043610610062576000357c0100000000000000000000000000000000000000000000000000000000900463ffffffff16806338314aac146100645780635cf629201461006e578063b6b55f2514610099578063fa30b251146100c7575b005b61006c6101a3565b005b34801561007a57600080fd5b506100836101a5565b6040518082815260200191505060405180910390f35b6100c5600480360360208110156100af57600080fd5b81019080803590602001909291905050506101c4565b005b3480156100d357600080fd5b5061018d600480360360208110156100ea57600080fd5b810190808035906020019064010000000081111561010757600080fd5b82018360208201111561011957600080fd5b8035906020019184600183028401116401000000008311171561013b57600080fd5b91908080601f016020809104026020016040519081016040528093929190818152602001838380828437600081840152601f19601f8201169050808301925050505050505091929192905050506101d5565b6040518082815260200191505060405180910390f35b565b60003073ffffffffffffffffffffffffffffffffffffffff1631905090565b80341415156101d257600080fd5b50565b6000806000809054906101000a900473ffffffffffffffffffffffffffffffffffffffff1673ffffffffffffffffffffffffffffffffffffffff16631c351a9d84336040518363ffffffff167c010000000000000000000000000000000000000000000000000000000002815260040180806020018373ffffffffffffffffffffffffffffffffffffffff1673ffffffffffffffffffffffffffffffffffffffff168152602001828103825284818151815260200191508051906020019080838360005b838110156102b4578082015181840152602081019050610299565b50505050905090810190601f1680156102e15780820380516001836020036101000a031916815260200191505b509350505050602060405180830381600087803b15801561030157600080fd5b505af1158015610315573d6000803e3d6000fd5b505050506040513d602081101561032b57600080fd5b810190808051906020019092919050505090508091505091905056fea165627a7a72305820f36afe7cf019b8656c1376e49f24478ab3674694d35ba89edf22b25c52f62c030029",
  "source": "pragma solidity 0.5.0;\n\nimport \"./Color.sol\";\n\ncontract TicketStore {\n    Color private _festiTicket;\n\n    constructor(Color festiTicket) public {\n        _festiTicket = festiTicket;\n    }\n\n    function deposit (uint256 amount) payable external {\n        require(msg.value == amount);\n    }\n\n    function getBalanceMoney() public view returns(uint) {\n        return address(this).balance;\n    }\n\n    function receiveEthers() payable public  {\n    }\n\n    function buyTicket(string memory color) public returns (uint256) {\n        uint256 tokenId = _festiTicket.mint(color, msg.sender);\n        return tokenId;\n    }\n\n    function() payable external {\n    }\n\n}",
  "sourcePath": "/home/datphits/nft-ticket/src/contracts/TicketStore.sol",
  "compiler": {
    "name": "solc",
    "version": "0.5.0+commit.1d4f565a.Emscripten.clang"
  },
  "schemaVersion": "3.0.2",
  "updatedAt": "2021-06-07T04:16:40.232Z",
  "devdoc": {
    "methods": {}
  },
  "userdoc": {
    "methods": {}
  }
}