{
  "contractName": "TicketStore",
  "abi": [
    {
      "inputs": [
        {
          "name": "festiTicket",
          "type": "address"
        }
      ],
      "payable": false,
      "stateMutability": "nonpayable",
      "type": "constructor",
      "signature": "constructor"
    },
    {
      "constant": false,
      "inputs": [
        {
          "name": "amount",
          "type": "uint256"
        }
      ],
      "name": "deposit",
      "outputs": [],
      "payable": true,
      "stateMutability": "payable",
      "type": "function",
      "signature": "0xb6b55f25"
    },
    {
      "constant": true,
      "inputs": [],
      "name": "getBalanceMoney",
      "outputs": [
        {
          "name": "",
          "type": "uint256"
        }
      ],
      "payable": false,
      "stateMutability": "view",
      "type": "function",
      "signature": "0x5cf62920"
    },
    {
      "constant": false,
      "inputs": [],
      "name": "buyTicket",
      "outputs": [
        {
          "name": "",
          "type": "uint256"
        }
      ],
      "payable": true,
      "stateMutability": "payable",
      "type": "function",
      "signature": "0xedca914c"
    }
  ],
  "bytecode": "0x608060405234801561001057600080fd5b506040516020806102c38339810180604052602081101561003057600080fd5b8101908080519060200190929190505050806000806101000a81548173ffffffffffffffffffffffffffffffffffffffff021916908373ffffffffffffffffffffffffffffffffffffffff16021790555050610232806100916000396000f3fe608060405260043610610057576000357c0100000000000000000000000000000000000000000000000000000000900463ffffffff1680635cf629201461005c578063b6b55f2514610087578063edca914c146100b5575b600080fd5b34801561006857600080fd5b506100716100d3565b6040518082815260200191505060405180910390f35b6100b36004803603602081101561009d57600080fd5b81019080803590602001909291905050506100f2565b005b6100bd610103565b6040518082815260200191505060405180910390f35b60003073ffffffffffffffffffffffffffffffffffffffff1631905090565b803414151561010057600080fd5b50565b6000806000809054906101000a900473ffffffffffffffffffffffffffffffffffffffff1673ffffffffffffffffffffffffffffffffffffffff16636a627842336040518263ffffffff167c0100000000000000000000000000000000000000000000000000000000028152600401808273ffffffffffffffffffffffffffffffffffffffff1673ffffffffffffffffffffffffffffffffffffffff168152602001915050602060405180830381600087803b1580156101c257600080fd5b505af11580156101d6573d6000803e3d6000fd5b505050506040513d60208110156101ec57600080fd5b81019080805190602001909291905050509050809150509056fea165627a7a72305820f1e1da47eb4afb1556ee581048f4d12519ae4af50f63d41dbacaf37b963ddff30029",
  "source": "pragma solidity 0.5.0;\n\nimport \"./Color.sol\";\n\ncontract TicketStore {\n    Color private _festiTicket;\n\n    constructor(Color festiTicket) public {\n        _festiTicket = festiTicket;\n    }\n\n    function deposit (uint256 amount) payable external {\n        require(msg.value == amount);\n    }\n\n    function getBalanceMoney() public view returns(uint) {\n        return address(this).balance;\n    }\n\n//    function receiveEthers()  public  {\n//    }\n\n    function buyTicket() payable public returns (uint256) {\n        uint256 tokenId = _festiTicket.mint(msg.sender);\n        return tokenId;\n    }\n//\n//    function() payable external {\n//    }\n\n}",
  "sourcePath": "/home/datphits/nft-ticket/src/contracts/TicketStore.sol",
  "compiler": {
    "name": "solc",
    "version": "0.5.0+commit.1d4f565a.Emscripten.clang"
  },
  "schemaVersion": "3.0.2",
  "updatedAt": "2021-06-08T08:35:57.830Z",
  "devdoc": {
    "methods": {}
  },
  "userdoc": {
    "methods": {}
  }
}